:020000020000FC
:02000000FFC03F
:02002C0086C18B
:1002000018E01EBF1FEF1DBF1FE314B913E017B99D
:1002100018E01AB9112715B918B907E610E072D01D
:1002200013E21093B00011E01093B1001127109366
:10023000B400112710938000109385001093840060
:1002400013E01093890017EE109388001BE01093C1
:10025000810012E010936F002227332771E0F3E052
:10026000E2E85ED078941091C00017FFFCCF409177
:10027000C600413359F0423389F04B32B9F04D3268
:10028000E9F04D3619F14D3409F1EDCFF8943327EB
:1002900022277894F3E0EEEE43D0E5CFF89431E0F6
:1002A00022277894F4E0E8E03BD0DDCF7230D9F239
:1002B000739510D0F4E0E2E233D0D5CF772399F2F2
:1002C0007A9508D0F4E0E2E22BD0CDCFF3E0E2E87B
:1002D00027D0C9CF772341F0713019F001E013EF37
:1002E00005C003E017EE02C007E01FECF89400938E
:1002F00089001093880011271093850010938400C3
:10030000789408950093C4001093C50011271093AA
:10031000C00018E11093C10016E01093C2000895C8
:100320000591002311F002D0FBCF08951091C00079
:1003300015FFFCCF0093C60008950F930FB70F93DE
:100340001F936F93EF93FF936627332319F4F4E021
:10035000EEE302C0F5E0EEE3E20FF61F0491102F8A
:10036000137018B9102F1695169515B90093B4008F
:100370002395FF91EF916F911F910F910FBF0F91F7
:1003800018950D0A44414320522D3252202D20470A
:100390007275706F20390D0A313A2053656E616CA9
:1003A00020310D0A323A2053656E616C2031380DD0
:1003B0000A2B3A206672656375656E636961206D0C
:1003C00061796F720D0A2D3A206672656375656EEC
:1003D000636961206D656E6F720D0A4D3A206D6F15
:1003E0007374726172206D656E750D0A00000D0ADE
:1003F00053656E616C20312073656C656363696F52
:100400006E6164610D0A00000D0A53656E616C2017
:1004100031382073656C656363696F6E6164610D6B
:100420000A000D0A4672656375656E636961206135
:10043000637475616C697A6164610D0A0000808380
:1004400086898C8F9295989C9FA2A5A8ABAEB0B3DD
:10045000B6B9BCBFC1C4C7C9CCCED1D3D5D8DADCFC
:10046000DEE0E2E4E6E8EAECEDEFF0F2F3F5F6F7D1
:10047000F8F9FAFBFCFCFDFEFEFFFFFFFFFFFFFFAC
:10048000FFFFFFFFFEFEFDFCFCFBFAF9F8F7F6F5B7
:10049000F3F2F0EFEDECEAE8E6E4E2E0DEDCDAD8F5
:1004A000D5D3D1CECCC9C7C4C1BFBCB9B6B3B0AE29
:1004B000ABA8A5A29F9C9895928F8C898683807CFF
:1004C000797673706D6A6763605D5A5754514F4C0B
:1004D000494643403E3B383633312E2C2A272523CC
:1004E000211F1D1B1917151312100F0D0C0A0908D7
:1004F00007060504030302010100000000000000DC
:100500000000000001010203030405060708090AB0
:100510000C0D0F1012131517191B1D1F2123252752
:100520002A2C2E313336383B3E404346494C4F51FE
:1005300054575A5D6063676A6D707376797C808307
:1005400086898C8F9295989B9EA1A4A7AAADB0B3E3
:10055000B6B9BBBEC1C3C6C9CBCED0D2D5D7D9DB05
:10056000DEE0E2E4E6E7E9EBECEEF0F1F2F4F5F6DA
:10057000F7F8F9FAFBFBFCFDFDFEFEFEFEFEFFFEBA
:10058000FEFEFEFEFDFDFCFBFBFAF9F8F7F6F5F4C6
:10059000F2F1F0EEECEBE9E7E6E4E2E0DEDBD9D7FE
:1005A000D5D2D0CECBC9C6C3C1BEBBB9B6B3B0AD30
:1005B000AAA7A4A19E9B9895928F8C898683807C04
:1005C000797673706D6A6764615E5B5855524F4C03
:1005D000494644413E3C393634312F2D2A282624C1
:1005E000211F1D1B1918161413110F0E0D0B0A09CC
:1005F00008070605040403020201010101010101CB
:1006000001010101020203040405060708090A0B9F
:100610000D0E0F1113141618191B1D1F2124262847
:100620002A2D2F313436393C3E414446494C4F52F5
:0E06300055585B5E6164676A6D707376797C05
:00000001FF
